:100000000C9462000C948A000C948A000C948A0070
:100010000C948A000C948A000C948A000C948A0038
:100020000C948A000C948A000C948A000C948A0028
:100030000C948A000C948A000C948A000C948A0018
:100040000C94C0090C948A000C948A000C948A00C9
:100050000C948A000C948A000C948A000C948A00F8
:100060000C948A000C948A000000000024002700F1
:100070002A0000000000250028002B0000000000DE
:1000800023002600290004040404040404040202DA
:100090000202020203030303030301020408102007
:1000A0004080010204081020010204081020000012
:1000B0000007000201000003040600000000000029
:1000C0000000CB0811241FBECFEFD8E0DEBFCDBFAC
:1000D00011E0A0E0B1E0EEEDF5E102C005900D9277
:1000E000AE31B107D9F711E0AEE1B1E001C01D9228
:1000F000A237B107E1F710E0C4ECD0E004C02297CA
:10010000FE010E94E90AC23CD107C9F70E94B90961
:100110000C94ED0A0C940000FC0188279927E894C0
:1001200021912032E9F3293010F02E30C8F32B3220
:1001300041F02D3239F4689404C00E94AA00820F65
:10014000911D219120532A30C0F31EF49095819582
:100150009F4F08957AE0979F902D879F802D910D56
:1001600011240895FC018EE091E0918380836283E5
:100170000895FC0182818F3F11F480E008950E9470
:100180001F070895EF92FF920F931F93CF93DF9372
:10019000EC018A818F3F89F10E947C030E94080A4A
:1001A0007B018C01CE010E94B900882301F10E94DD
:1001B000080A6E197F09800B910B685E73408040BE
:1001C0009040A8F461E070E080E090E00E94160AA0
:1001D000E9CF8A810E94AB03EA81F0E0EE0FFF1FB6
:1001E000E25EFE4F118210828FEF8A8306C0CE013D
:1001F0000E94B900882381F3ECCFDF91CF911F914A
:100200000F91FF90EF900895FC0182818F3F19F4C8
:1002100020E030E003C00E9469079C01C9010895F5
:10022000CF93DF93EC018A818F3F11F480E015C0FA
:10023000CE010E94B900843171F0882361F08831C9
:1002400051F08C3131F4CE010E94040120E0892B61
:1002500019F021E001C020E0822FDF91CF910895B5
:100260000F931F93DF93CF930F92CDB7DEB78C011F
:100270000E940401892B19F42FEF3FEF0CC0F80105
:100280008281BE016F5F7F4F41E050E00E942E04EB
:100290008981282F30E0C9010F90CF91DF911F9104
:1002A0000F910895CF93DF93EC0103C0CE010E941C
:1002B0003001CE010E940401892BC1F7DF91CF915B
:1002C0000895FC0182818F3F11F00E94520408952D
:1002D000DF93CF930F92CDB7DEB76983FC018281A4
:1002E0008F3F39F0BE016F5F7F4F41E050E00E94C9
:1002F00052040F90CF91DF910895FC0182818F3FCE
:1003000051F0DB010D900020E9F71197A61BB70B08
:10031000AD010E9452040895AF92BF92CF92DF9236
:10032000EF92FF920F931F937B016A0159010E9484
:10033000970685E565E50E946205C7010E94D7061C
:10034000C6010E940107C5010E949B06C8010E94C8
:10035000B9061F910F91FF90EF90DF90CF90BF9063
:10036000AF9008950F931F93DF93CF9300D000D0E9
:10037000CDB7DEB7EFEFE983EA83EB831C828E0112
:100380000F5F1F4F0E948C010F900F900F900F90E6
:10039000CF91DF911F910F910895DF93CF9300D0FC
:1003A00000D0CDB7DEB7FA012081298321812A83CD
:1003B00022812B8321E02C839E012F5F3F4F0E94DF
:1003C000B2010F900F900F900F90CF91DF91089591
:1003D000FC0188E191E091838083738362830895B7
:1003E000DF93CF930F92CDB7DEB7FC016983A08175
:1003F000B18114962D913C911597BE016F5F7F4F8F
:1004000041E050E0F90109950F90CF91DF910895F7
:10041000CF93DF93DB010D900020E9F71197A61B26
:10042000B70BEC01E881F9810480F581E02DAD0185
:100430000995DF91CF910895CF92DF92EF92FF92CD
:100440000F931F93DF93CF93CDB7DEB727970FB6E8
:10045000F894DEBF0FBECDBF6C0100E010E07E015E
:100460000894E11CF11CC701602F0E94B200C70173
:100470000E94B9008823B1F4F60142815381802F94
:1004800061E020E00E94CA03802F0E948F03000FCA
:10049000111F025E1E4FF60182819381F801918344
:1004A000808305C00F5F1F4F04301105E1F62796CA
:1004B0000FB6F894DEBF0FBECDBFCF91DF911F9175
:1004C0000F91FF90EF90DF90CF9008958F929F92C1
:1004D000AF92BF92DF92EF92FF920F931F93DF9341
:1004E000CF93CDB7DEB727970FB6F894DEBF0FBE18
:1004F000CDBF4C010EE111E0AA24BB24DD247E0116
:100500000894E11CF11CC7016D2D0E94B200F80196
:1005100020813181F4018281938128173907B1F458
:10052000C7010E94B900843121F491E0A92EB12CB9
:100530000DC0C7010E94B9008C3141F4C7010E946F
:100540000401892B19F4C7010E94C200D3940E5FE5
:100550001F4FF4E0DF16B9F6AB2819F4C4010E946E
:100560001C0227960FB6F894DEBF0FBECDBFCF9109
:10057000DF911F910F91FF90EF90DF90BF90AF90B0
:100580009F908F9008956F927F928F929F92AF92DB
:10059000BF92CF92DF92FF920F931F93DF93CF937F
:1005A000CDB7DEB727970FB6F894DEBF0FBECDBF2D
:1005B0005C013B014A010E9466020EE111E0FF244A
:1005C0006E010894C11CD11CC6016F2D0E94B2009F
:1005D000F80120813181F501828193812817390743
:1005E00051F4C6010E94B900873129F4C601B30154
:1005F000A4010E946101F3940E5F1F4FF4E0FF1607
:1006000019F727960FB6F894DEBF0FBECDBFCF9176
:10061000DF911F910F91FF90DF90CF90BF90AF902F
:100620009F908F907F906F9008959F92AF92BF920E
:10063000CF92DF92EF92FF920F931F93DF93CF93AE
:10064000CDB7DEB727970FB6F894DEBF0FBECDBF8C
:10065000E82E992E5B01CB010E9466020EE111E0AB
:10066000FF246E010894C11CD11CC6016F2D0E948D
:10067000B200F80120813181F50182819381281730
:100680003907D9F4C6010E94B9008731B1F4C60117
:100690000E940401892B89F0EE2DF92D8EE091E066
:1006A000918380838B8182838C819D8194838383DA
:1006B0008E819F81968385830BC0F3940E5F1F4FBD
:1006C000F4E0FF1691F68E2D992D6FEF0E94B20087
:1006D0008E2D992D27960FB6F894DEBF0FBECDBF95
:1006E000CF91DF911F910F91FF90EF90DF90CF900E
:1006F000BF90AF909F900895CF93DF9390E0D82F55
:10070000CC27CF5FDB4FCE0168E00E94CB04CE0147
:100710000E94EA048823D9F7DF91CF910895CF93FF
:10072000DF9390E00496D82FCC27CE0103960E9449
:10073000EA04833111F080E00BC02196CE0162E023
:100740000E94CB04CE010E94EA048823D9F781E0FD
:10075000DF91CF9108950F931F93CF93DF93082FCD
:1007600010E00C5F1F4FD02FCC272196CE0160E107
:100770000E94CB04CE010E94EA048823D9F7902F6F
:10078000882702966FEF0E94CB04DF91CF911F91D3
:100790000F910895CF92DF92EF92FF920F931F93E4
:1007A000CF93DF93082FE62EEA01F22E862F815099
:1007B000853010F080E049C0802F0E94AB0310E02C
:1007C0000C5F1F4FD02ECC24FE28C6016F2D0E9437
:1007D000CB04B6E0000F111FBA95E1F7209771F036
:1007E0000F5F1F4F000F111F000F111FC8016D2F4A
:1007F0000E94CB04C80101966C2F18C020912701DC
:10080000309128012F5F3F4F30932801209327011B
:100810000F5F1F4F000F111F000F111FC801632F23
:100820000E94CB04C8010196609127010E94CB046D
:1008300086010F5F1F4FC80161E00E94CB04C80111
:100840000E94EA048823D9F781E0DF91CF911F91BC
:100850000F91FF90EF90DF90CF900895FF920F934C
:100860001F93CF93DF93F82E8A014115510519F498
:1008700040E050E010C00E948608DF2DC0E0CF5F4E
:10088000DB4FCE0160E40E94CB04CE010E94EA045B
:100890008823D9F7A801CA01DF91CF911F910F9149
:1008A000FF9008956F927F928F929F92BF92CF9206
:1008B000DF92EF92FF920F931F93CF93DF93B82EA7
:1008C0003B01EA010E94C2048C179D0710F08E01C3
:1008D00004C08B2D0E94C2048C01EB2CFF2484E009
:1008E00090E0E80EF91EDE2CCC2453E0852E912CEE
:1008F0008C0C9D1C8B2D0E942707EC01C4010E94CB
:10090000EA04873129F08C3119F000E010E003C0CF
:10091000C017D10778F38B2DB301A8010E94F70708
:10092000E6012196CE0160E20E94CB04CE010E9436
:10093000EA048823D9F70BC0C4010E94EA04882383
:1009400049F48B2D0E94AB0300E010E00CC0DE2DBB
:10095000CC272296CE010E94EA0484FFEDCFCE017F
:1009600060E10E94CB04C801DF91CF911F910F91EC
:10097000FF90EF90DF90CF90BF909F908F907F90EF
:100980006F900895E82FF0E0EE0FFF1FE75CFE4F39
:10099000808191810895282F84B18C6284B92A9A2C
:1009A00085B1877D85B980E58CBD2A9880EF8EBDA5
:1009B0000DB407FEFDCF9EBD0DB407FEFDCF2EBDCD
:1009C0000DB407FEFDCF6EBD0DB407FEFDCF2A9A14
:1009D00081E00895282F84B18C6284B92A9A85B168
:1009E000877D85B980E58CBD2A988FE08EBD0DB4DA
:1009F00007FEFDCF9EBD0DB407FEFDCF2EBD0DB48D
:100A000007FEFDCF1EBC0DB407FEFDCF8EB52A9AA2
:100A10000895DC0184B18C6284B92A9A85B1877DFE
:100A200085B980E58CBD20E030E090EF19C02A98B0
:100A30009EBD0DB407FEFDCFBEBD0DB407FEFDCFBC
:100A4000AEBD0DB407FEFDCFFB01E20FF31F8081A9
:100A50008EBD0DB407FEFDCF2A9A2F5F3F4F119632
:100A60002417350720F3CA010895DC0184B18C6294
:100A700084B92A9A85B1877D85B980E58CBD20E04F
:100A800030E09FE01AC02A989EBD0DB407FEFDCF4E
:100A9000BEBD0DB407FEFDCFAEBD0DB407FEFDCF4C
:100AA0001EBC0DB407FEFDCF8EB5FB01E20FF31F98
:100AB00080832A9A2F5F3F4F11962417350718F32A
:100AC000CA0108952F923F924F925F926F927F9248
:100AD0008F929F92AF92BF92CF92DF92EF92FF924E
:100AE0000F931F93DF93CF9300D000D0CDB7DEB725
:100AF000182F062F8BE190E0612F0E94CB048AE132
:100B000090E0602F0E94CB0480E090E490934A0133
:100B10008093490180E090E69093520180935101C7
:100B200069E371E081E491E09C838B83F1E3CF2E54
:100B3000F1E0DF2EE9E2EE2EE1E0FE2EAA24BB2456
:100B4000662477248824992440E050E0E12FF0E0E7
:100B5000FA83E983202E3324FB0111821082EB817A
:100B6000FC8111821082F0E06F16F0E27F06DCF566
:100B700089819A81042E02C0959587950A94E2F79F
:100B80008370907081309105A1F0823091051CF442
:100B9000892B39F028C08230910599F0039719F517
:100BA00018C080E094E0FB01918380838FEF93E095
:100BB00017C080E098E0FB01918380838FEF97E07E
:100BC0000FC080E090E1FB01918380838FEF9FE075
:100BD00007C080E090E2FB01918380838FEF9FE16B
:100BE000F7019183808390E0891690E299060CF0DA
:100BF0003EC0C101042E02C0959587950A94E2F784
:100C00008370907081309105A9F0823091051CF4B9
:100C1000892B39F02CC082309105A9F0039739F562
:100C20001BC080E094E0EB81FC81918380838FEF97
:100C300093E01AC080E098E0EB81FC81918380838F
:100C40008FEF97E011C080E090E1EB81FC81918310
:100C500080838FEF9FE008C080E090E2EB81FC8111
:100C6000918380838FEF9FE1F60191838083FB0165
:100C700040805180EB81FC8100811181A114B1047D
:100C8000F1F0FA01E75BFE4FDA01A95CBE4F8D91EE
:100C90009C91329122913296820F931F918380838F
:100CA000FA01EF5AFE4FDA01A15CBE4F8D919C9183
:100CB000329122913296820F931F91838083089400
:100CC000A11CB11C6E5F7F4F4E5F5F4F8B819C817B
:100CD00002969C838B83E2E0F0E0CE0EDF1EEE0EE8
:100CE000FF1EF4E0AF16B10429F0640C751C800EF1
:100CF000911E32CF0F900F900F900F90CF91DF91F8
:100D00001F910F91FF90EF90DF90CF90BF90AF9029
:100D10009F908F907F906F905F904F903F902F901B
:100D20000895682F80E090E80E94CB04089580E841
:100D30000E94910608950F931F938C0181E090E02B
:100D4000F80160810E94CB0482E090E0F8016181AB
:100D50000E94CB0483E090E0F80162810E94CB0402
:100D600084E090E0F80163810E94CB041F910F9111
:100D700008950F931F938C0185E090E0F801608146
:100D80000E94CB0486E090E0F80161810E94CB04D0
:100D900087E090E0F80162810E94CB0488E090E057
:100DA000F80163810E94CB041F910F9108950F9366
:100DB0001F938C0189E090E0F80160810E94CB04D0
:100DC0008AE090E0F80161810E94CB048BE090E022
:100DD000F80162810E94CB048CE090E0F80163810D
:100DE0000E94CB048DE090E0F80164810E94CB0466
:100DF0008EE090E0F80165810E94CB041F910F9175
:100E000008950F931F938C018FE090E0F8016081AB
:100E10000E94CB0480E190E0F80161810E94CB0444
:100E200081E190E0F80162810E94CB0482E190E0D0
:100E3000F80163810E94CB041F910F91089590E007
:100E4000982F88278D5F9B4F0E94EA0408958F9208
:100E50009F92AF92BF92CF92DF92EF92FF920F9349
:100E60001F93CF93DF9390E0982F8827805E9B4F4E
:100E70004C015C010894A11CB11CC0E0D0E0C4018D
:100E80000E94EA04F82EEE24C5010E94EA046701DC
:100E9000C80ED11CC114D10459F0C4010E94EA0447
:100EA000182F00E0C5010E94EA04E801C80FD11D17
:100EB000CC15DD0521F7CE01DF91CF911F910F9168
:100EC000FF90EF90DF90CF90BF90AF909F908F906A
:100ED00008958F929F92AF92BF92CF92DF92EF923E
:100EE000FF920F931F93CF93DF9390E00496982F78
:100EF000882716E2812E912C880E991EB7E2AB2E20
:100F0000B12CA80EB91EC0E0D0E0C4010E94EA04D2
:100F1000F82EEE24C5010E94EA046701C80ED11C18
:100F2000C114D10459F0C4010E94EA04182F00E052
:100F3000C5010E94EA04E801C80FD11DCC15DD05EA
:100F400021F7CE01DF91CF911F910F91FF90EF908C
:100F5000DF90CF90BF90AF909F908F900895CF92E9
:100F6000DF92EF92FF920F931F93CF93DF937B015A
:100F7000E901E82FF0E0EE0FFF1FDF01A75DBE4F94
:100F80008D919C914823592389E4C82E81E0D82E65
:100F9000CE0EDF1ED6012D913C91240F351FE75C4C
:100FA000FE4F0190F081E02DCA018C0F9D1FE817C4
:100FB000F90780F48F01041B150BC901A8010E94D9
:100FC0000905C01BD10BF601808191810E0D1F1DFB
:100FD000B80101C0C901AE010E940905DF91CF919E
:100FE0001F910F91FF90EF90DF90CF9008957F9227
:100FF0008F929F92AF92BF92CF92DF92EF92FF9229
:101000000F931F93782E4B015A01E82EFF2484E0A2
:1010100090E0E80EF91EFE2CEE2424E2C22ED12C24
:10102000CE0CDF1CC6010E94EA04182F00E085E206
:1010300090E0E80EF91EC7010E94EA04080F111D96
:10104000872DB401A80195010E94AF070A0D1B1D51
:10105000C601612F0E94CB04C701602F0E94CB0400
:101060001F910F91FF90EF90DF90CF90BF90AF90C6
:101070009F908F907F900895CF92DF92EF92FF9292
:101080000F931F93CF93DF937A01E901E82FF0E0EC
:10109000EE0FFF1FDF01AF5CBE4F8D919C91682367
:1010A000792341E5C42E41E0D42ECE0EDF1ED601B9
:1010B0002D913C91260F371FEF5BFE4F0190F08181
:1010C000E02DCE01860F971FE817F90788F48F01EE
:1010D000061B170BC901B701A8010E943505C01BEB
:1010E000D10BF601808191810E0D1F1DB80102C048
:1010F000C901B701AE010E943505DF91CF911F9163
:101100000F91FF90EF90DF90CF9008957F928F9294
:101110009F92AF92BF92CF92DF92EF92FF920F9386
:101120001F93782E4B015A01E82EFF2484E090E0B3
:10113000E80EF91EFE2CEE2468E2C62ED12CCE0C51
:10114000DF1CC6010E94EA04182F00E089E290E04B
:10115000E80EF91EC7010E94EA04080F111D872D31
:10116000B801A40195010E943C080A0D1B1DC6018F
:10117000612F0E94CB04C701602F0E94CB041F91F6
:101180000F91FF90EF90DF90CF90BF90AF909F9026
:101190008F907F90089589E591E062E477E20E9464
:1011A000E801089588E061E00E947A0A89E061E040
:1011B0000E947A0A84E061E00E947A0A85E061E098
:1011C0000E947A0A86E291E060E071E046E051E038
:1011D0000E94CD0189E591E00E941C0208951F93B1
:1011E000162F2115310511F460E004C01216130604
:1011F00034F461E00E949A0A812F60E005C060E04B
:101200000E949A0A812F61E00E949A0A1F91089514
:10121000FF920F931F93DF93CF93CDB7DEB727973E
:101220000FB6F894DEBF0FBECDBF109266011092CC
:101230006501109268011092670188E090E069E012
:1012400070E043E050E020E030E00E94EF082091A1
:1012500067013091680184E090E065E070E046E06D
:1012600050E00E94EF088E010F5F1F4FC80169E533
:1012700071E00E941503F02E012F68C020916501D6
:101280003091660188E090E069E070E043E050E072
:101290000E94EF08209167013091680184E090E09E
:1012A00065E070E046E050E00E94EF088F2D902F3F
:1012B0000E940401892B09F449C08F2D902F0E94B0
:1012C000300180935D018032A1F4E0916301F091DF
:1012D0006401E25AFE4F1082109264011092630181
:1012E0008EE591E00E948C009093660180936501E9
:1012F0002DC08D3059F1A0916301B09164018A3005
:1013000081F4A25ABE4F1C921092640110926301A4
:101310008EE591E00E948C009093680180936701B4
:1013200015C0A430B10554F4FD01E25AFE4F80838C
:101330001196B0936401A093630108C08F2D902F84
:101340000E94520110926401109263018F2D902F20
:101350000E941001882309F091CF27960FB6F894C8
:10136000DEBF0FBECDBFCF91DF911F910F91FF90D8
:1013700008950E94400A0E94D2080E940809FDCFE9
:101380001F920F920FB60F9211242F933F938F93BA
:101390009F93AF93BF9380916D0190916E01A09147
:1013A0006F01B0917001309171010196A11DB11DC5
:1013B000232F2D5F2D3720F02D570196A11DB11D34
:1013C0002093710180936D0190936E01A0936F0142
:1013D000B09370018091690190916A01A0916B01B5
:1013E000B0916C010196A11DB11D8093690190938C
:1013F0006A01A0936B01B0936C01BF91AF919F9173
:101400008F913F912F910F900FBE0F901F901895C5
:101410008FB7F89420916D0130916E0140916F016A
:10142000509170018FBFB901CA010895EF92FF92E8
:101430000F931F937B018C018FB7F89440916D013E
:1014400050916E0160916F01709170018FBF2FB745
:10145000F89480916D0190916E01A0916F01B0910F
:1014600070012FBF841B950BA60BB70BE816F9066E
:101470000A071B0760F71F910F91FF90EF900895E7
:10148000789484B5826084BD84B5816084BD85B55F
:10149000826085BD85B5816085BDEEE6F0E0808126
:1014A00081608083E1E8F0E08081826080838081D8
:1014B00081608083E0E8F0E0808181608083E1EBFF
:1014C000F0E0808184608083E0EBF0E080818160E7
:1014D0008083EAE7F0E0808184608083808182609D
:1014E0008083808181608083808180688083109286
:1014F000C1000895282F30E0C90186569F4FFC0196
:1015000094912A573F4FF9018491882391F0E82F55
:10151000F0E0EE0FFF1FE859FF4FA591B49166234D
:1015200029F48C91909589238C9308958C91892B23
:101530008C930895482F50E0CA0182559F4FFC01BB
:101540002491CA0186569F4FFC0194914A575F4FE0
:10155000FA0134913323D1F1222331F1233021F4E4
:10156000809180008F7705C0243031F48091800015
:101570008F7D8093800018C0213019F484B58F7757
:1015800004C0223021F484B58F7D84BD0DC0263087
:1015900021F48091B0008F7705C0273029F4809125
:1015A000B0008F7D8093B000E32FF0E0EE0FFF1FBF
:1015B000EE58FF4FA591B491662329F48C91909534
:1015C00089238C9308958C91892B8C930895EE0F29
:0E15D000FF1F0590F491E02D0994F894FFCFD1
:1015DE000005C29723E4C0A80102000000006801C4
:0E15EE007D01610100000000F0010802C3024F
:00000001FF
